:1081340014088EF9DE86FFFFFFFF8986C78C0000D6
:0681440000000000000035
:1080FA00E4F524F523F522F521E47F407E1FFDFCFB
:10810A00AB24AA23A922A821C312814B501BE4FA4B
:10811A00F9F8E5242401F524EA3523F523E9352283
:09812A00F522E83521F52180D091
:018133002229
:10808C0090E8037480F0E4F51CF51DF51EE4FFFE8A
:10809C00AD1C051C74082DF8E6F9E4FDFCE9751F10
:1080AC0000F520530180E990E8017003F08003741F
:1080BC0001F090E8027401F0E4F0A920E925E0F960
:1080CC000DBD00010CED64084C70D20FBF00010E09
:1080DC00EF64044E70BA1280FA051EE51E7002059C
:0E80EC001DC39403E51D6480948040A180981C
:030000000280007B
:0C800000787FE4F6D8FD758124028047EB
:10814B00EB9FF5F0EA9E42F0E99D42F0EC6480C8AB
:06815B0064809845F0224B
:10800C0002808CE493A3F8E493A34003F68001F27E
:10801C0008DFF48029E493A3F85407240CC8C33375
:10802C00C4540F4420C8834004F456800146F6DF44
:10803C00E4800B0102040810204080908134E47E1F
:10804C00019360BCA3FF543F30E509541FFEE49339
:10805C00A360010ECF54C025E060A840B8E493A300
:10806C00FAE493A3F8E493A3C8C582C8CAC583CA2B
:10807C00F0A3C8C582C8CAC583CADFE9DEE780BEE3
:01814A000034
:00000001FF
