:108144001408FFFFFFFF8388C88288C7C0AF86007A
:0681540000000000000025
:10810A00E4F526F525F524F523E47FA07E0FFDFC92
:10811A00AB26AA25A924A823C312815B501BE4FA23
:10812A00F9F8E5262401F526EA3525F525E9352469
:09813A00F524E83523F52380D07B
:018143002219
:10808C0090E8037480F0E4F51CF51DF51E751F00D7
:10809C0075200D12810AAF1C051C74082FF8E6FF21
:1080AC00E4FDFCEF752100F522530780EF90E80109
:1080BC007003F080037401F090E8027401F0E4F0B6
:1080CC00AF22EF25E0FF0DBD00010CED64084C70F4
:1080DC00D2E52015207002151FD3E5209400E51F72
:1080EC006480948050AD12810A051EE51E70020555
:0E80FC001DC39401E51D64809480409180882E
:030000000280007B
:0C800000787FE4F6D8FD758126028047E9
:10815B00EB9FF5F0EA9E42F0E99D42F0EC6480C89B
:06816B0064809845F0223B
:10800C0002808CE493A3F8E493A34003F68001F27E
:10801C0008DFF48029E493A3F85407240CC8C33375
:10802C00C4540F4420C8834004F456800146F6DF44
:10803C00E4800B0102040810204080908144E47E0F
:10804C00019360BCA3FF543F30E509541FFEE49339
:10805C00A360010ECF54C025E060A840B8E493A300
:10806C00FAE493A3F8E493A3C8C582C8CAC583CA2B
:10807C00F0A3C8C582C8CAC583CADFE9DEE780BEE3
:01815A000024
:00000001FF
